{
  "contractName": "Consent",
  "abi": [
    {
      "inputs": [
        {
          "internalType": "uint256",
          "name": "",
          "type": "uint256"
        }
      ],
      "name": "dataPoints",
      "outputs": [
        {
          "internalType": "uint256",
          "name": "userId",
          "type": "uint256"
        },
        {
          "internalType": "string",
          "name": "consentInfo",
          "type": "string"
        },
        {
          "internalType": "uint256",
          "name": "timestamp",
          "type": "uint256"
        }
      ],
      "stateMutability": "view",
      "type": "function"
    },
    {
      "inputs": [
        {
          "internalType": "uint256",
          "name": "_userId",
          "type": "uint256"
        },
        {
          "internalType": "string",
          "name": "_consentInfo",
          "type": "string"
        }
      ],
      "name": "addDataPoint",
      "outputs": [],
      "stateMutability": "nonpayable",
      "type": "function"
    },
    {
      "inputs": [],
      "name": "getDataPointsCount",
      "outputs": [
        {
          "internalType": "uint256",
          "name": "",
          "type": "uint256"
        }
      ],
      "stateMutability": "view",
      "type": "function"
    }
  ],
  "bytecode": "0x608060405234801561000f575f80fd5b506107c68061001d5f395ff3fe608060405234801561000f575f80fd5b506004361061003f575f3560e01c806316388ee614610043578063516023761461005f578063a6782b4b1461007d575b5f80fd5b61005d60048036038101906100589190610364565b6100af565b005b61006761011f565b60405161007491906103cd565b60405180910390f35b610097600480360381019061009291906103e6565b61012a565b6040516100a69392919061048b565b60405180910390f35b5f604051806060016040528084815260200183815260200142815250908060018154018082558091505060019003905f5260205f2090600302015f909190919091505f820151815f0155602082015181600101908161010e91906106c1565b506040820151816002015550505050565b5f8080549050905090565b5f8181548110610138575f80fd5b905f5260205f2090600302015f91509050805f01549080600101805461015d906104f4565b80601f0160208091040260200160405190810160405280929190818152602001828054610189906104f4565b80156101d45780601f106101ab576101008083540402835291602001916101d4565b820191905f5260205f20905b8154815290600101906020018083116101b757829003601f168201915b5050505050908060020154905083565b5f604051905090565b5f80fd5b5f80fd5b5f819050919050565b610207816101f5565b8114610211575f80fd5b50565b5f81359050610222816101fe565b92915050565b5f80fd5b5f80fd5b5f601f19601f8301169050919050565b7f4e487b71000000000000000000000000000000000000000000000000000000005f52604160045260245ffd5b61027682610230565b810181811067ffffffffffffffff8211171561029557610294610240565b5b80604052505050565b5f6102a76101e4565b90506102b3828261026d565b919050565b5f67ffffffffffffffff8211156102d2576102d1610240565b5b6102db82610230565b9050602081019050919050565b828183375f83830152505050565b5f610308610303846102b8565b61029e565b9050828152602081018484840111156103245761032361022c565b5b61032f8482856102e8565b509392505050565b5f82601f83011261034b5761034a610228565b5b813561035b8482602086016102f6565b91505092915050565b5f806040838503121561037a576103796101ed565b5b5f61038785828601610214565b925050602083013567ffffffffffffffff8111156103a8576103a76101f1565b5b6103b485828601610337565b9150509250929050565b6103c7816101f5565b82525050565b5f6020820190506103e05f8301846103be565b92915050565b5f602082840312156103fb576103fa6101ed565b5b5f61040884828501610214565b91505092915050565b5f81519050919050565b5f82825260208201905092915050565b5f5b8381101561044857808201518184015260208101905061042d565b5f8484015250505050565b5f61045d82610411565b610467818561041b565b935061047781856020860161042b565b61048081610230565b840191505092915050565b5f60608201905061049e5f8301866103be565b81810360208301526104b08185610453565b90506104bf60408301846103be565b949350505050565b7f4e487b71000000000000000000000000000000000000000000000000000000005f52602260045260245ffd5b5f600282049050600182168061050b57607f821691505b60208210810361051e5761051d6104c7565b5b50919050565b5f819050815f5260205f209050919050565b5f6020601f8301049050919050565b5f82821b905092915050565b5f600883026105807fffffffffffffffffffffffffffffffffffffffffffffffffffffffffffffffff82610545565b61058a8683610545565b95508019841693508086168417925050509392505050565b5f819050919050565b5f6105c56105c06105bb846101f5565b6105a2565b6101f5565b9050919050565b5f819050919050565b6105de836105ab565b6105f26105ea826105cc565b848454610551565b825550505050565b5f90565b6106066105fa565b6106118184846105d5565b505050565b5b81811015610634576106295f826105fe565b600181019050610617565b5050565b601f8211156106795761064a81610524565b61065384610536565b81016020851015610662578190505b61067661066e85610536565b830182610616565b50505b505050565b5f82821c905092915050565b5f6106995f198460080261067e565b1980831691505092915050565b5f6106b1838361068a565b9150826002028217905092915050565b6106ca82610411565b67ffffffffffffffff8111156106e3576106e2610240565b5b6106ed82546104f4565b6106f8828285610638565b5f60209050601f831160018114610729575f8415610717578287015190505b61072185826106a6565b865550610788565b601f19841661073786610524565b5f5b8281101561075e57848901518255600182019150602085019450602081019050610739565b8683101561077b5784890151610777601f89168261068a565b8355505b6001600288020188555050505b50505050505056fea26469706673582212202b13ff1f961ad0214bd891605a01e55f344da6f794a00ebcba467e8c1a5c438264736f6c63430008150033",
  "immutableReferences": {},
  "source": "// Consent.sol\r\npragma solidity ^0.8.0;\r\n\r\ncontract Consent {\r\n    struct DataPoint {\r\n        uint userId;\r\n        string consentInfo;\r\n        uint timestamp;\r\n    }\r\n\r\n    DataPoint[] public dataPoints;\r\n\r\n    function addDataPoint(uint _userId, string memory _consentInfo) public {\r\n        dataPoints.push(DataPoint(_userId, _consentInfo, block.timestamp));\r\n    }\r\n\r\n    function getDataPointsCount() public view returns (uint) {\r\n        return dataPoints.length;\r\n    }\r\n}\r\n\r\n",
  "sourcePath": "C:\\Users\\kkn\\Documents\\TBS_projects\\ngin\\ethereum-consent\\contracts\\Consent.sol",
  "compiler": {
    "name": "solc",
    "version": "0.8.21+commit.d9974bed.Emscripten.clang"
  },
  "schemaVersion": "3.4.16",
  "updatedAt": "2023-09-23T23:55:54.922Z",
  "devdoc": {
    "kind": "dev",
    "methods": {},
    "version": 1
  },
  "userdoc": {
    "kind": "user",
    "methods": {},
    "version": 1
  }
}